{
  "_format": "hh-sol-artifact-1",
  "contractName": "Domains",
  "sourceName": "contracts/Domains.sol",
  "abi": [
    {
      "inputs": [
        {
          "internalType": "string",
          "name": "_tld",
          "type": "string"
        }
      ],
      "stateMutability": "payable",
      "type": "constructor"
    },
    {
      "anonymous": false,
      "inputs": [
        {
          "indexed": true,
          "internalType": "address",
          "name": "owner",
          "type": "address"
        },
        {
          "indexed": true,
          "internalType": "address",
          "name": "approved",
          "type": "address"
        },
        {
          "indexed": true,
          "internalType": "uint256",
          "name": "tokenId",
          "type": "uint256"
        }
      ],
      "name": "Approval",
      "type": "event"
    },
    {
      "anonymous": false,
      "inputs": [
        {
          "indexed": true,
          "internalType": "address",
          "name": "owner",
          "type": "address"
        },
        {
          "indexed": true,
          "internalType": "address",
          "name": "operator",
          "type": "address"
        },
        {
          "indexed": false,
          "internalType": "bool",
          "name": "approved",
          "type": "bool"
        }
      ],
      "name": "ApprovalForAll",
      "type": "event"
    },
    {
      "anonymous": false,
      "inputs": [
        {
          "indexed": true,
          "internalType": "address",
          "name": "from",
          "type": "address"
        },
        {
          "indexed": true,
          "internalType": "address",
          "name": "to",
          "type": "address"
        },
        {
          "indexed": true,
          "internalType": "uint256",
          "name": "tokenId",
          "type": "uint256"
        }
      ],
      "name": "Transfer",
      "type": "event"
    },
    {
      "inputs": [
        {
          "internalType": "address",
          "name": "to",
          "type": "address"
        },
        {
          "internalType": "uint256",
          "name": "tokenId",
          "type": "uint256"
        }
      ],
      "name": "approve",
      "outputs": [],
      "stateMutability": "nonpayable",
      "type": "function"
    },
    {
      "inputs": [
        {
          "internalType": "address",
          "name": "owner",
          "type": "address"
        }
      ],
      "name": "balanceOf",
      "outputs": [
        {
          "internalType": "uint256",
          "name": "",
          "type": "uint256"
        }
      ],
      "stateMutability": "view",
      "type": "function"
    },
    {
      "inputs": [
        {
          "internalType": "string",
          "name": "",
          "type": "string"
        }
      ],
      "name": "domains",
      "outputs": [
        {
          "internalType": "address",
          "name": "",
          "type": "address"
        }
      ],
      "stateMutability": "view",
      "type": "function"
    },
    {
      "inputs": [
        {
          "internalType": "string",
          "name": "name",
          "type": "string"
        }
      ],
      "name": "getAddress",
      "outputs": [
        {
          "internalType": "address",
          "name": "",
          "type": "address"
        }
      ],
      "stateMutability": "view",
      "type": "function"
    },
    {
      "inputs": [
        {
          "internalType": "uint256",
          "name": "tokenId",
          "type": "uint256"
        }
      ],
      "name": "getApproved",
      "outputs": [
        {
          "internalType": "address",
          "name": "",
          "type": "address"
        }
      ],
      "stateMutability": "view",
      "type": "function"
    },
    {
      "inputs": [
        {
          "internalType": "string",
          "name": "name",
          "type": "string"
        }
      ],
      "name": "getRecord",
      "outputs": [
        {
          "internalType": "string",
          "name": "",
          "type": "string"
        }
      ],
      "stateMutability": "view",
      "type": "function"
    },
    {
      "inputs": [
        {
          "internalType": "address",
          "name": "owner",
          "type": "address"
        },
        {
          "internalType": "address",
          "name": "operator",
          "type": "address"
        }
      ],
      "name": "isApprovedForAll",
      "outputs": [
        {
          "internalType": "bool",
          "name": "",
          "type": "bool"
        }
      ],
      "stateMutability": "view",
      "type": "function"
    },
    {
      "inputs": [],
      "name": "isOwner",
      "outputs": [
        {
          "internalType": "bool",
          "name": "",
          "type": "bool"
        }
      ],
      "stateMutability": "view",
      "type": "function"
    },
    {
      "inputs": [],
      "name": "name",
      "outputs": [
        {
          "internalType": "string",
          "name": "",
          "type": "string"
        }
      ],
      "stateMutability": "view",
      "type": "function"
    },
    {
      "inputs": [],
      "name": "owner",
      "outputs": [
        {
          "internalType": "address payable",
          "name": "",
          "type": "address"
        }
      ],
      "stateMutability": "view",
      "type": "function"
    },
    {
      "inputs": [
        {
          "internalType": "uint256",
          "name": "tokenId",
          "type": "uint256"
        }
      ],
      "name": "ownerOf",
      "outputs": [
        {
          "internalType": "address",
          "name": "",
          "type": "address"
        }
      ],
      "stateMutability": "view",
      "type": "function"
    },
    {
      "inputs": [
        {
          "internalType": "string",
          "name": "name",
          "type": "string"
        }
      ],
      "name": "price",
      "outputs": [
        {
          "internalType": "uint256",
          "name": "",
          "type": "uint256"
        }
      ],
      "stateMutability": "pure",
      "type": "function"
    },
    {
      "inputs": [
        {
          "internalType": "string",
          "name": "",
          "type": "string"
        }
      ],
      "name": "records",
      "outputs": [
        {
          "internalType": "string",
          "name": "",
          "type": "string"
        }
      ],
      "stateMutability": "view",
      "type": "function"
    },
    {
      "inputs": [
        {
          "internalType": "string",
          "name": "name",
          "type": "string"
        }
      ],
      "name": "register",
      "outputs": [],
      "stateMutability": "payable",
      "type": "function"
    },
    {
      "inputs": [
        {
          "internalType": "address",
          "name": "from",
          "type": "address"
        },
        {
          "internalType": "address",
          "name": "to",
          "type": "address"
        },
        {
          "internalType": "uint256",
          "name": "tokenId",
          "type": "uint256"
        }
      ],
      "name": "safeTransferFrom",
      "outputs": [],
      "stateMutability": "nonpayable",
      "type": "function"
    },
    {
      "inputs": [
        {
          "internalType": "address",
          "name": "from",
          "type": "address"
        },
        {
          "internalType": "address",
          "name": "to",
          "type": "address"
        },
        {
          "internalType": "uint256",
          "name": "tokenId",
          "type": "uint256"
        },
        {
          "internalType": "bytes",
          "name": "_data",
          "type": "bytes"
        }
      ],
      "name": "safeTransferFrom",
      "outputs": [],
      "stateMutability": "nonpayable",
      "type": "function"
    },
    {
      "inputs": [
        {
          "internalType": "address",
          "name": "operator",
          "type": "address"
        },
        {
          "internalType": "bool",
          "name": "approved",
          "type": "bool"
        }
      ],
      "name": "setApprovalForAll",
      "outputs": [],
      "stateMutability": "nonpayable",
      "type": "function"
    },
    {
      "inputs": [
        {
          "internalType": "string",
          "name": "name",
          "type": "string"
        },
        {
          "internalType": "string",
          "name": "record",
          "type": "string"
        }
      ],
      "name": "setRecord",
      "outputs": [],
      "stateMutability": "nonpayable",
      "type": "function"
    },
    {
      "inputs": [
        {
          "internalType": "bytes4",
          "name": "interfaceId",
          "type": "bytes4"
        }
      ],
      "name": "supportsInterface",
      "outputs": [
        {
          "internalType": "bool",
          "name": "",
          "type": "bool"
        }
      ],
      "stateMutability": "view",
      "type": "function"
    },
    {
      "inputs": [],
      "name": "symbol",
      "outputs": [
        {
          "internalType": "string",
          "name": "",
          "type": "string"
        }
      ],
      "stateMutability": "view",
      "type": "function"
    },
    {
      "inputs": [],
      "name": "tld",
      "outputs": [
        {
          "internalType": "string",
          "name": "",
          "type": "string"
        }
      ],
      "stateMutability": "view",
      "type": "function"
    },
    {
      "inputs": [
        {
          "internalType": "uint256",
          "name": "tokenId",
          "type": "uint256"
        }
      ],
      "name": "tokenURI",
      "outputs": [
        {
          "internalType": "string",
          "name": "",
          "type": "string"
        }
      ],
      "stateMutability": "view",
      "type": "function"
    },
    {
      "inputs": [
        {
          "internalType": "address",
          "name": "from",
          "type": "address"
        },
        {
          "internalType": "address",
          "name": "to",
          "type": "address"
        },
        {
          "internalType": "uint256",
          "name": "tokenId",
          "type": "uint256"
        }
      ],
      "name": "transferFrom",
      "outputs": [],
      "stateMutability": "nonpayable",
      "type": "function"
    },
    {
      "inputs": [],
      "name": "withdraw",
      "outputs": [],
      "stateMutability": "nonpayable",
      "type": "function"
    }
  ],
  "bytecode": "0x6080604052604051806108a0016040528061086b815260200162004c3f61086b91396009908051906020019062000038929190620002c8565b506040518060400160405280600d81526020017f3c2f746578743e3c2f7376673e00000000000000000000000000000000000000815250600a908051906020019062000086929190620002c8565b50604051620054aa380380620054aa8339818101604052810190620000ac919062000515565b6040518060400160405280601381526020017f4572696b2773204e616d652053657276696365000000000000000000000000008152506040518060400160405280600381526020017f4e4e530000000000000000000000000000000000000000000000000000000000815250816000908051906020019062000130929190620002c8565b50806001908051906020019062000149929190620002c8565b50505033600d60006101000a81548173ffffffffffffffffffffffffffffffffffffffff021916908373ffffffffffffffffffffffffffffffffffffffff1602179055508060089080519060200190620001a5929190620002c8565b50620001f26040518060400160405280601881526020017f2573206e616d652073657276696365206465706c6f796564000000000000000081525082620001f960201b620016de1760201c565b5062000663565b6200029b828260405160240162000212929190620005c3565b6040516020818303038152906040527f4b5c4277000000000000000000000000000000000000000000000000000000007bffffffffffffffffffffffffffffffffffffffffffffffffffffffff19166020820180517bffffffffffffffffffffffffffffffffffffffffffffffffffffffff83818316178352505050506200029f60201b60201c565b5050565b60008151905060006a636f6e736f6c652e6c6f679050602083016000808483855afa5050505050565b828054620002d6906200062d565b90600052602060002090601f016020900481019282620002fa576000855562000346565b82601f106200031557805160ff191683800117855562000346565b8280016001018555821562000346579182015b828111156200034557825182559160200191906001019062000328565b5b50905062000355919062000359565b5090565b5b80821115620003745760008160009055506001016200035a565b5090565b6000604051905090565b600080fd5b600080fd5b600080fd5b600080fd5b6000601f19601f8301169050919050565b7f4e487b7100000000000000000000000000000000000000000000000000000000600052604160045260246000fd5b620003e18262000396565b810181811067ffffffffffffffff82111715620004035762000402620003a7565b5b80604052505050565b60006200041862000378565b9050620004268282620003d6565b919050565b600067ffffffffffffffff821115620004495762000448620003a7565b5b620004548262000396565b9050602081019050919050565b60005b838110156200048157808201518184015260208101905062000464565b8381111562000491576000848401525b50505050565b6000620004ae620004a8846200042b565b6200040c565b905082815260208101848484011115620004cd57620004cc62000391565b5b620004da84828562000461565b509392505050565b600082601f830112620004fa57620004f96200038c565b5b81516200050c84826020860162000497565b91505092915050565b6000602082840312156200052e576200052d62000382565b5b600082015167ffffffffffffffff8111156200054f576200054e62000387565b5b6200055d84828501620004e2565b91505092915050565b600081519050919050565b600082825260208201905092915050565b60006200058f8262000566565b6200059b818562000571565b9350620005ad81856020860162000461565b620005b88162000396565b840191505092915050565b60006040820190508181036000830152620005df818562000582565b90508181036020830152620005f5818462000582565b90509392505050565b7f4e487b7100000000000000000000000000000000000000000000000000000000600052602260045260246000fd5b600060028204905060018216806200064657607f821691505b602082108114156200065d576200065c620005fe565b5b50919050565b6145cc80620006736000396000f3fe60806040526004361061014b5760003560e01c806370a08231116100b6578063bf40fac11161006f578063bf40fac1146104b6578063c1880a98146104f3578063c87b56dd1461051c578063e985e9c514610559578063f2c298be14610596578063fe2c6198146105b25761014b565b806370a08231146103a65780638da5cb5b146103e35780638f32d59b1461040e57806395d89b4114610439578063a22cb46514610464578063b88d4fde1461048d5761014b565b8063264492351161010857806326449235146102845780632d551432146102c15780633ccfd60b146102ec57806342842e0e14610303578063541e771d1461032c5780636352211e146103695761014b565b806301ffc9a71461015057806306fdde031461018d578063081812fc146101b8578063095ea7b3146101f557806311dd88451461021e57806323b872dd1461025b575b600080fd5b34801561015c57600080fd5b5061017760048036038101906101729190612b24565b6105ef565b6040516101849190612b6c565b60405180910390f35b34801561019957600080fd5b506101a26106d1565b6040516101af9190612c20565b60405180910390f35b3480156101c457600080fd5b506101df60048036038101906101da9190612c78565b610763565b6040516101ec9190612ce6565b60405180910390f35b34801561020157600080fd5b5061021c60048036038101906102179190612d2d565b6107e8565b005b34801561022a57600080fd5b5061024560048036038101906102409190612dd2565b610900565b6040516102529190612c20565b60405180910390f35b34801561026757600080fd5b50610282600480360381019061027d9190612e1f565b6109b3565b005b34801561029057600080fd5b506102ab60048036038101906102a69190612fa2565b610a13565b6040516102b89190612ce6565b60405180910390f35b3480156102cd57600080fd5b506102d6610a5c565b6040516102e39190612c20565b60405180910390f35b3480156102f857600080fd5b50610301610aea565b005b34801561030f57600080fd5b5061032a60048036038101906103259190612e1f565b610bb0565b005b34801561033857600080fd5b50610353600480360381019061034e9190612fa2565b610bd0565b6040516103609190612c20565b60405180910390f35b34801561037557600080fd5b50610390600480360381019061038b9190612c78565b610c86565b60405161039d9190612ce6565b60405180910390f35b3480156103b257600080fd5b506103cd60048036038101906103c89190612feb565b610d38565b6040516103da9190613027565b60405180910390f35b3480156103ef57600080fd5b506103f8610df0565b6040516104059190613063565b60405180910390f35b34801561041a57600080fd5b50610423610e16565b6040516104309190612b6c565b60405180910390f35b34801561044557600080fd5b5061044e610e6e565b60405161045b9190612c20565b60405180910390f35b34801561047057600080fd5b5061048b600480360381019061048691906130aa565b610f00565b005b34801561049957600080fd5b506104b460048036038101906104af919061318b565b610f16565b005b3480156104c257600080fd5b506104dd60048036038101906104d89190612dd2565b610f78565b6040516104ea9190612ce6565b60405180910390f35b3480156104ff57600080fd5b5061051a6004803603810190610515919061320e565b610fc3565b005b34801561052857600080fd5b50610543600480360381019061053e9190612c78565b611071565b6040516105509190612c20565b60405180910390f35b34801561056557600080fd5b50610580600480360381019061057b919061328f565b6111c3565b60405161058d9190612b6c565b60405180910390f35b6105b060048036038101906105ab9190612dd2565b611257565b005b3480156105be57600080fd5b506105d960048036038101906105d49190612dd2565b611638565b6040516105e69190613027565b60405180910390f35b60007f80ac58cd000000000000000000000000000000000000000000000000000000007bffffffffffffffffffffffffffffffffffffffffffffffffffffffff1916827bffffffffffffffffffffffffffffffffffffffffffffffffffffffff191614806106ba57507f5b5e139f000000000000000000000000000000000000000000000000000000007bffffffffffffffffffffffffffffffffffffffffffffffffffffffff1916827bffffffffffffffffffffffffffffffffffffffffffffffffffffffff1916145b806106ca57506106c98261177a565b5b9050919050565b6060600080546106e0906132fe565b80601f016020809104026020016040519081016040528092919081815260200182805461070c906132fe565b80156107595780601f1061072e57610100808354040283529160200191610759565b820191906000526020600020905b81548152906001019060200180831161073c57829003601f168201915b5050505050905090565b600061076e826117e4565b6107ad576040517f08c379a00000000000000000000000000000000000000000000000000000000081526004016107a4906133a2565b60405180910390fd5b6004600083815260200190815260200160002060009054906101000a900473ffffffffffffffffffffffffffffffffffffffff169050919050565b60006107f382610c86565b90508073ffffffffffffffffffffffffffffffffffffffff168373ffffffffffffffffffffffffffffffffffffffff161415610864576040517f08c379a000000000000000000000000000000000000000000000000000000000815260040161085b90613434565b60405180910390fd5b8073ffffffffffffffffffffffffffffffffffffffff16610883611850565b73ffffffffffffffffffffffffffffffffffffffff1614806108b257506108b1816108ac611850565b6111c3565b5b6108f1576040517f08c379a00000000000000000000000000000000000000000000000000000000081526004016108e8906134c6565b60405180910390fd5b6108fb8383611858565b505050565b6060600c8383604051610914929190613516565b9081526020016040518091039020805461092d906132fe565b80601f0160208091040260200160405190810160405280929190818152602001828054610959906132fe565b80156109a65780601f1061097b576101008083540402835291602001916109a6565b820191906000526020600020905b81548152906001019060200180831161098957829003601f168201915b5050505050905092915050565b6109c46109be611850565b82611911565b610a03576040517f08c379a00000000000000000000000000000000000000000000000000000000081526004016109fa906135a1565b60405180910390fd5b610a0e8383836119ef565b505050565b600b818051602081018201805184825260208301602085012081835280955050505050506000915054906101000a900473ffffffffffffffffffffffffffffffffffffffff1681565b60088054610a69906132fe565b80601f0160208091040260200160405190810160405280929190818152602001828054610a95906132fe565b8015610ae25780601f10610ab757610100808354040283529160200191610ae2565b820191906000526020600020905b815481529060010190602001808311610ac557829003601f168201915b505050505081565b610af2610e16565b610afb57600080fd5b600047905060003373ffffffffffffffffffffffffffffffffffffffff1682604051610b26906135f2565b60006040518083038185875af1925050503d8060008114610b63576040519150601f19603f3d011682016040523d82523d6000602084013e610b68565b606091505b5050905080610bac576040517f08c379a0000000000000000000000000000000000000000000000000000000008152600401610ba390613653565b60405180910390fd5b5050565b610bcb83838360405180602001604052806000815250610f16565b505050565b600c818051602081018201805184825260208301602085012081835280955050505050506000915090508054610c05906132fe565b80601f0160208091040260200160405190810160405280929190818152602001828054610c31906132fe565b8015610c7e5780601f10610c5357610100808354040283529160200191610c7e565b820191906000526020600020905b815481529060010190602001808311610c6157829003601f168201915b505050505081565b6000806002600084815260200190815260200160002060009054906101000a900473ffffffffffffffffffffffffffffffffffffffff169050600073ffffffffffffffffffffffffffffffffffffffff168173ffffffffffffffffffffffffffffffffffffffff161415610d2f576040517f08c379a0000000000000000000000000000000000000000000000000000000008152600401610d26906136e5565b60405180910390fd5b80915050919050565b60008073ffffffffffffffffffffffffffffffffffffffff168273ffffffffffffffffffffffffffffffffffffffff161415610da9576040517f08c379a0000000000000000000000000000000000000000000000000000000008152600401610da090613777565b60405180910390fd5b600360008373ffffffffffffffffffffffffffffffffffffffff1673ffffffffffffffffffffffffffffffffffffffff168152602001908152602001600020549050919050565b600d60009054906101000a900473ffffffffffffffffffffffffffffffffffffffff1681565b6000600d60009054906101000a900473ffffffffffffffffffffffffffffffffffffffff1673ffffffffffffffffffffffffffffffffffffffff163373ffffffffffffffffffffffffffffffffffffffff1614905090565b606060018054610e7d906132fe565b80601f0160208091040260200160405190810160405280929190818152602001828054610ea9906132fe565b8015610ef65780601f10610ecb57610100808354040283529160200191610ef6565b820191906000526020600020905b815481529060010190602001808311610ed957829003601f168201915b5050505050905090565b610f12610f0b611850565b8383611c56565b5050565b610f27610f21611850565b83611911565b610f66576040517f08c379a0000000000000000000000000000000000000000000000000000000008152600401610f5d906135a1565b60405180910390fd5b610f7284848484611dc3565b50505050565b6000600b8383604051610f8c929190613516565b908152602001604051809103902060009054906101000a900473ffffffffffffffffffffffffffffffffffffffff16905092915050565b3373ffffffffffffffffffffffffffffffffffffffff16600b8585604051610fec929190613516565b908152602001604051809103902060009054906101000a900473ffffffffffffffffffffffffffffffffffffffff1673ffffffffffffffffffffffffffffffffffffffff161461103b57600080fd5b8181600c868660405161104f929190613516565b9081526020016040518091039020919061106a92919061298f565b5050505050565b606061107c826117e4565b6110bb576040517f08c379a00000000000000000000000000000000000000000000000000000000081526004016110b290613809565b60405180910390fd5b60006006600084815260200190815260200160002080546110db906132fe565b80601f0160208091040260200160405190810160405280929190818152602001828054611107906132fe565b80156111545780601f1061112957610100808354040283529160200191611154565b820191906000526020600020905b81548152906001019060200180831161113757829003601f168201915b505050505090506000611165611e1f565b905060008151141561117b5781925050506111be565b6000825111156111b057808260405160200161119892919061385a565b604051602081830303815290604052925050506111be565b6111b984611e36565b925050505b919050565b6000600560008473ffffffffffffffffffffffffffffffffffffffff1673ffffffffffffffffffffffffffffffffffffffff16815260200190815260200160002060008373ffffffffffffffffffffffffffffffffffffffff1673ffffffffffffffffffffffffffffffffffffffff16815260200190815260200160002060009054906101000a900460ff16905092915050565b600073ffffffffffffffffffffffffffffffffffffffff16600b8383604051611281929190613516565b908152602001604051809103902060009054906101000a900473ffffffffffffffffffffffffffffffffffffffff1673ffffffffffffffffffffffffffffffffffffffff16146112d057600080fd5b60006112dc8383611638565b905080341015611321576040517f08c379a0000000000000000000000000000000000000000000000000000000008152600401611318906138ca565b60405180910390fd5b600083836008604051602001611339939291906139ca565b60405160208183030381529060405290506000600982600a604051602001611363939291906139fb565b604051602081830303815290604052905060006113806007611edd565b905060006113d187878080601f016020809104026020016040519081016040528093929190818152602001838380828437600081840152601f19601f82011690508083019250505050505050611eeb565b905060006113de826120a0565b90506114d26040518060600160405280603181526020016144ed6031913989898080601f016020809104026020016040519081016040528093929190818152602001838380828437600081840152601f19601f820116905080830192505050505050506008805461144e906132fe565b80601f016020809104026020016040519081016040528092919081815260200182805461147a906132fe565b80156114c75780601f1061149c576101008083540402835291602001916114c7565b820191906000526020600020905b8154815290600101906020018083116114aa57829003601f168201915b505050505086612201565b6000611508866114e1876122a3565b846040516020016114f493929190613ba8565b6040516020818303038152906040526122a3565b905060008160405160200161151d9190613c51565b604051602081830303815290604052905061154f6040518060600160405280603981526020016144b46039913961243b565b61158e6040518060400160405280600e81526020017f46696e616c20746f6b656e555249000000000000000000000000000000000000815250826116de565b6115af60405180606001604052806039815260200161451e6039913961243b565b6115b933866124d4565b6115c385826124f2565b33600b8b8b6040516115d6929190613516565b908152602001604051809103902060006101000a81548173ffffffffffffffffffffffffffffffffffffffff021916908373ffffffffffffffffffffffffffffffffffffffff16021790555061162c6007612566565b50505050505050505050565b60008061168884848080601f016020809104026020016040519081016040528093929190818152602001838380828437600081840152601f19601f82011690508083019250505050505050611eeb565b90506000811161169757600080fd5b60038114156116b1576706f05b59d3b200009150506116d8565b60048114156116cb57670429d069189e00009150506116d8565b67016345785d8a00009150505b92915050565b61177682826040516024016116f4929190613c73565b6040516020818303038152906040527f4b5c4277000000000000000000000000000000000000000000000000000000007bffffffffffffffffffffffffffffffffffffffffffffffffffffffff19166020820180517bffffffffffffffffffffffffffffffffffffffffffffffffffffffff838183161783525050505061257c565b5050565b60007f01ffc9a7000000000000000000000000000000000000000000000000000000007bffffffffffffffffffffffffffffffffffffffffffffffffffffffff1916827bffffffffffffffffffffffffffffffffffffffffffffffffffffffff1916149050919050565b60008073ffffffffffffffffffffffffffffffffffffffff166002600084815260200190815260200160002060009054906101000a900473ffffffffffffffffffffffffffffffffffffffff1673ffffffffffffffffffffffffffffffffffffffff1614159050919050565b600033905090565b816004600083815260200190815260200160002060006101000a81548173ffffffffffffffffffffffffffffffffffffffff021916908373ffffffffffffffffffffffffffffffffffffffff160217905550808273ffffffffffffffffffffffffffffffffffffffff166118cb83610c86565b73ffffffffffffffffffffffffffffffffffffffff167f8c5be1e5ebec7d5bd14f71427d1e84f3dd0314c0f7b2291e5b200ac8c7c3b92560405160405180910390a45050565b600061191c826117e4565b61195b576040517f08c379a000000000000000000000000000000000000000000000000000000000815260040161195290613d1c565b60405180910390fd5b600061196683610c86565b90508073ffffffffffffffffffffffffffffffffffffffff168473ffffffffffffffffffffffffffffffffffffffff1614806119d557508373ffffffffffffffffffffffffffffffffffffffff166119bd84610763565b73ffffffffffffffffffffffffffffffffffffffff16145b806119e657506119e581856111c3565b5b91505092915050565b8273ffffffffffffffffffffffffffffffffffffffff16611a0f82610c86565b73ffffffffffffffffffffffffffffffffffffffff1614611a65576040517f08c379a0000000000000000000000000000000000000000000000000000000008152600401611a5c90613dae565b60405180910390fd5b600073ffffffffffffffffffffffffffffffffffffffff168273ffffffffffffffffffffffffffffffffffffffff161415611ad5576040517f08c379a0000000000000000000000000000000000000000000000000000000008152600401611acc90613e40565b60405180910390fd5b611ae08383836125a5565b611aeb600082611858565b6001600360008573ffffffffffffffffffffffffffffffffffffffff1673ffffffffffffffffffffffffffffffffffffffff1681526020019081526020016000206000828254611b3b9190613e8f565b925050819055506001600360008473ffffffffffffffffffffffffffffffffffffffff1673ffffffffffffffffffffffffffffffffffffffff1681526020019081526020016000206000828254611b929190613ec3565b92505081905550816002600083815260200190815260200160002060006101000a81548173ffffffffffffffffffffffffffffffffffffffff021916908373ffffffffffffffffffffffffffffffffffffffff160217905550808273ffffffffffffffffffffffffffffffffffffffff168473ffffffffffffffffffffffffffffffffffffffff167fddf252ad1be2c89b69c2b068fc378daa952ba7f163c4a11628f55a4df523b3ef60405160405180910390a4611c518383836125aa565b505050565b8173ffffffffffffffffffffffffffffffffffffffff168373ffffffffffffffffffffffffffffffffffffffff161415611cc5576040517f08c379a0000000000000000000000000000000000000000000000000000000008152600401611cbc90613f65565b60405180910390fd5b80600560008573ffffffffffffffffffffffffffffffffffffffff1673ffffffffffffffffffffffffffffffffffffffff16815260200190815260200160002060008473ffffffffffffffffffffffffffffffffffffffff1673ffffffffffffffffffffffffffffffffffffffff16815260200190815260200160002060006101000a81548160ff0219169083151502179055508173ffffffffffffffffffffffffffffffffffffffff168373ffffffffffffffffffffffffffffffffffffffff167f17307eab39ab6107e8899845ad3d59bd9653f200f220920489ca2b5937696c3183604051611db69190612b6c565b60405180910390a3505050565b611dce8484846119ef565b611dda848484846125af565b611e19576040517f08c379a0000000000000000000000000000000000000000000000000000000008152600401611e1090613ff7565b60405180910390fd5b50505050565b606060405180602001604052806000815250905090565b6060611e41826117e4565b611e80576040517f08c379a0000000000000000000000000000000000000000000000000000000008152600401611e7790614089565b60405180910390fd5b6000611e8a611e1f565b90506000815111611eaa5760405180602001604052806000815250611ed5565b80611eb4846120a0565b604051602001611ec592919061385a565b6040516020818303038152906040525b915050919050565b600081600001549050919050565b60008060008084519050600092505b80821015612095576000858381518110611f1757611f166140a9565b5b602001015160f81c60f81b9050608060f81b817effffffffffffffffffffffffffffffffffffffffffffffffffffffffffffff19161015611f6657600183611f5f9190613ec3565b9250612081565b60e060f81b817effffffffffffffffffffffffffffffffffffffffffffffffffffffffffffff19161015611fa857600283611fa19190613ec3565b9250612080565b60f060f81b817effffffffffffffffffffffffffffffffffffffffffffffffffffffffffffff19161015611fea57600383611fe39190613ec3565b925061207f565b60f8801b817effffffffffffffffffffffffffffffffffffffffffffffffffffffffffffff1916101561202b576004836120249190613ec3565b925061207e565b60fc60f81b817effffffffffffffffffffffffffffffffffffffffffffffffffffffffffffff1916101561206d576005836120669190613ec3565b925061207d565b60068361207a9190613ec3565b92505b5b5b5b5b50828061208d906140d8565b935050611efa565b829350505050919050565b606060008214156120e8576040518060400160405280600181526020017f300000000000000000000000000000000000000000000000000000000000000081525090506121fc565b600082905060005b6000821461211a578080612103906140d8565b915050600a826121139190614150565b91506120f0565b60008167ffffffffffffffff81111561213657612135612e77565b5b6040519080825280601f01601f1916602001820160405280156121685781602001600182028036833780820191505090505b5090505b600085146121f5576001826121819190613e8f565b9150600a856121909190614181565b603061219c9190613ec3565b60f81b8183815181106121b2576121b16140a9565b5b60200101907effffffffffffffffffffffffffffffffffffffffffffffffffffffffffffff1916908160001a905350600a856121ee9190614150565b945061216c565b8093505050505b919050565b61229d8484848460405160240161221b94939291906141b2565b6040516020818303038152906040527f9fd009f5000000000000000000000000000000000000000000000000000000007bffffffffffffffffffffffffffffffffffffffffffffffffffffffff19166020820180517bffffffffffffffffffffffffffffffffffffffffffffffffffffffff838183161783525050505061257c565b50505050565b606060008251905060008114156122cc5760405180602001604052806000815250915050612436565b600060036002836122dd9190613ec3565b6122e79190614150565b60046122f3919061420c565b905060006020826123049190613ec3565b67ffffffffffffffff81111561231d5761231c612e77565b5b6040519080825280601f01601f19166020018201604052801561234f5781602001600182028036833780820191505090505b5090506000604051806060016040528060408152602001614557604091399050600181016020830160005b868110156123f35760038101905062ffffff818a015116603f8160121c168401518060081b905060ff603f83600c1c1686015116810190508060081b905060ff603f8360061c1686015116810190508060081b905060ff603f831686015116810190508060e01b9050808452600484019350505061237a565b50600386066001811461240d576002811461241d57612428565b613d3d60f01b6002830352612428565b603d60f81b60018303525b508484525050819450505050505b919050565b6124d18160405160240161244f9190612c20565b6040516020818303038152906040527f41304fac000000000000000000000000000000000000000000000000000000007bffffffffffffffffffffffffffffffffffffffffffffffffffffffff19166020820180517bffffffffffffffffffffffffffffffffffffffffffffffffffffffff838183161783525050505061257c565b50565b6124ee828260405180602001604052806000815250612737565b5050565b6124fb826117e4565b61253a576040517f08c379a0000000000000000000000000000000000000000000000000000000008152600401612531906142d8565b60405180910390fd5b80600660008481526020019081526020016000209080519060200190612561929190612a15565b505050565b6001816000016000828254019250508190555050565b60008151905060006a636f6e736f6c652e6c6f679050602083016000808483855afa5050505050565b505050565b505050565b60006125d08473ffffffffffffffffffffffffffffffffffffffff16612792565b1561272a578373ffffffffffffffffffffffffffffffffffffffff1663150b7a026125f9611850565b8786866040518563ffffffff1660e01b815260040161261b949392919061434d565b6020604051808303816000875af192505050801561265757506040513d601f19601f8201168201806040525081019061265491906143ae565b60015b6126da573d8060008114612687576040519150601f19603f3d011682016040523d82523d6000602084013e61268c565b606091505b506000815114156126d2576040517f08c379a00000000000000000000000000000000000000000000000000000000081526004016126c990613ff7565b60405180910390fd5b805181602001fd5b63150b7a0260e01b7bffffffffffffffffffffffffffffffffffffffffffffffffffffffff1916817bffffffffffffffffffffffffffffffffffffffffffffffffffffffff19161491505061272f565b600190505b949350505050565b61274183836127b5565b61274e60008484846125af565b61278d576040517f08c379a000000000000000000000000000000000000000000000000000000000815260040161278490613ff7565b60405180910390fd5b505050565b6000808273ffffffffffffffffffffffffffffffffffffffff163b119050919050565b600073ffffffffffffffffffffffffffffffffffffffff168273ffffffffffffffffffffffffffffffffffffffff161415612825576040517f08c379a000000000000000000000000000000000000000000000000000000000815260040161281c90614427565b60405180910390fd5b61282e816117e4565b1561286e576040517f08c379a000000000000000000000000000000000000000000000000000000000815260040161286590614493565b60405180910390fd5b61287a600083836125a5565b6001600360008473ffffffffffffffffffffffffffffffffffffffff1673ffffffffffffffffffffffffffffffffffffffff16815260200190815260200160002060008282546128ca9190613ec3565b92505081905550816002600083815260200190815260200160002060006101000a81548173ffffffffffffffffffffffffffffffffffffffff021916908373ffffffffffffffffffffffffffffffffffffffff160217905550808273ffffffffffffffffffffffffffffffffffffffff16600073ffffffffffffffffffffffffffffffffffffffff167fddf252ad1be2c89b69c2b068fc378daa952ba7f163c4a11628f55a4df523b3ef60405160405180910390a461298b600083836125aa565b5050565b82805461299b906132fe565b90600052602060002090601f0160209004810192826129bd5760008555612a04565b82601f106129d657803560ff1916838001178555612a04565b82800160010185558215612a04579182015b82811115612a035782358255916020019190600101906129e8565b5b509050612a119190612a9b565b5090565b828054612a21906132fe565b90600052602060002090601f016020900481019282612a435760008555612a8a565b82601f10612a5c57805160ff1916838001178555612a8a565b82800160010185558215612a8a579182015b82811115612a89578251825591602001919060010190612a6e565b5b509050612a979190612a9b565b5090565b5b80821115612ab4576000816000905550600101612a9c565b5090565b6000604051905090565b600080fd5b600080fd5b60007fffffffff0000000000000000000000000000000000000000000000000000000082169050919050565b612b0181612acc565b8114612b0c57600080fd5b50565b600081359050612b1e81612af8565b92915050565b600060208284031215612b3a57612b39612ac2565b5b6000612b4884828501612b0f565b91505092915050565b60008115159050919050565b612b6681612b51565b82525050565b6000602082019050612b816000830184612b5d565b92915050565b600081519050919050565b600082825260208201905092915050565b60005b83811015612bc1578082015181840152602081019050612ba6565b83811115612bd0576000848401525b50505050565b6000601f19601f8301169050919050565b6000612bf282612b87565b612bfc8185612b92565b9350612c0c818560208601612ba3565b612c1581612bd6565b840191505092915050565b60006020820190508181036000830152612c3a8184612be7565b905092915050565b6000819050919050565b612c5581612c42565b8114612c6057600080fd5b50565b600081359050612c7281612c4c565b92915050565b600060208284031215612c8e57612c8d612ac2565b5b6000612c9c84828501612c63565b91505092915050565b600073ffffffffffffffffffffffffffffffffffffffff82169050919050565b6000612cd082612ca5565b9050919050565b612ce081612cc5565b82525050565b6000602082019050612cfb6000830184612cd7565b92915050565b612d0a81612cc5565b8114612d1557600080fd5b50565b600081359050612d2781612d01565b92915050565b60008060408385031215612d4457612d43612ac2565b5b6000612d5285828601612d18565b9250506020612d6385828601612c63565b9150509250929050565b600080fd5b600080fd5b600080fd5b60008083601f840112612d9257612d91612d6d565b5b8235905067ffffffffffffffff811115612daf57612dae612d72565b5b602083019150836001820283011115612dcb57612dca612d77565b5b9250929050565b60008060208385031215612de957612de8612ac2565b5b600083013567ffffffffffffffff811115612e0757612e06612ac7565b5b612e1385828601612d7c565b92509250509250929050565b600080600060608486031215612e3857612e37612ac2565b5b6000612e4686828701612d18565b9350506020612e5786828701612d18565b9250506040612e6886828701612c63565b9150509250925092565b600080fd5b7f4e487b7100000000000000000000000000000000000000000000000000000000600052604160045260246000fd5b612eaf82612bd6565b810181811067ffffffffffffffff82111715612ece57612ecd612e77565b5b80604052505050565b6000612ee1612ab8565b9050612eed8282612ea6565b919050565b600067ffffffffffffffff821115612f0d57612f0c612e77565b5b612f1682612bd6565b9050602081019050919050565b82818337600083830152505050565b6000612f45612f4084612ef2565b612ed7565b905082815260208101848484011115612f6157612f60612e72565b5b612f6c848285612f23565b509392505050565b600082601f830112612f8957612f88612d6d565b5b8135612f99848260208601612f32565b91505092915050565b600060208284031215612fb857612fb7612ac2565b5b600082013567ffffffffffffffff811115612fd657612fd5612ac7565b5b612fe284828501612f74565b91505092915050565b60006020828403121561300157613000612ac2565b5b600061300f84828501612d18565b91505092915050565b61302181612c42565b82525050565b600060208201905061303c6000830184613018565b92915050565b600061304d82612ca5565b9050919050565b61305d81613042565b82525050565b60006020820190506130786000830184613054565b92915050565b61308781612b51565b811461309257600080fd5b50565b6000813590506130a48161307e565b92915050565b600080604083850312156130c1576130c0612ac2565b5b60006130cf85828601612d18565b92505060206130e085828601613095565b9150509250929050565b600067ffffffffffffffff82111561310557613104612e77565b5b61310e82612bd6565b9050602081019050919050565b600061312e613129846130ea565b612ed7565b90508281526020810184848401111561314a57613149612e72565b5b613155848285612f23565b509392505050565b600082601f83011261317257613171612d6d565b5b813561318284826020860161311b565b91505092915050565b600080600080608085870312156131a5576131a4612ac2565b5b60006131b387828801612d18565b94505060206131c487828801612d18565b93505060406131d587828801612c63565b925050606085013567ffffffffffffffff8111156131f6576131f5612ac7565b5b6132028782880161315d565b91505092959194509250565b6000806000806040858703121561322857613227612ac2565b5b600085013567ffffffffffffffff81111561324657613245612ac7565b5b61325287828801612d7c565b9450945050602085013567ffffffffffffffff81111561327557613274612ac7565b5b61328187828801612d7c565b925092505092959194509250565b600080604083850312156132a6576132a5612ac2565b5b60006132b485828601612d18565b92505060206132c585828601612d18565b9150509250929050565b7f4e487b7100000000000000000000000000000000000000000000000000000000600052602260045260246000fd5b6000600282049050600182168061331657607f821691505b6020821081141561332a576133296132cf565b5b50919050565b7f4552433732313a20617070726f76656420717565727920666f72206e6f6e657860008201527f697374656e7420746f6b656e0000000000000000000000000000000000000000602082015250565b600061338c602c83612b92565b915061339782613330565b604082019050919050565b600060208201905081810360008301526133bb8161337f565b9050919050565b7f4552433732313a20617070726f76616c20746f2063757272656e74206f776e6560008201527f7200000000000000000000000000000000000000000000000000000000000000602082015250565b600061341e602183612b92565b9150613429826133c2565b604082019050919050565b6000602082019050818103600083015261344d81613411565b9050919050565b7f4552433732313a20617070726f76652063616c6c6572206973206e6f74206f7760008201527f6e6572206e6f7220617070726f76656420666f7220616c6c0000000000000000602082015250565b60006134b0603883612b92565b91506134bb82613454565b604082019050919050565b600060208201905081810360008301526134df816134a3565b9050919050565b600081905092915050565b60006134fd83856134e6565b935061350a838584612f23565b82840190509392505050565b60006135238284866134f1565b91508190509392505050565b7f4552433732313a207472616e736665722063616c6c6572206973206e6f74206f60008201527f776e6572206e6f7220617070726f766564000000000000000000000000000000602082015250565b600061358b603183612b92565b91506135968261352f565b604082019050919050565b600060208201905081810360008301526135ba8161357e565b9050919050565b600081905092915050565b50565b60006135dc6000836135c1565b91506135e7826135cc565b600082019050919050565b60006135fd826135cf565b9150819050919050565b7f4661696c656420746f207769746864726177204d617469630000000000000000600082015250565b600061363d601883612b92565b915061364882613607565b602082019050919050565b6000602082019050818103600083015261366c81613630565b9050919050565b7f4552433732313a206f776e657220717565727920666f72206e6f6e657869737460008201527f656e7420746f6b656e0000000000000000000000000000000000000000000000602082015250565b60006136cf602983612b92565b91506136da82613673565b604082019050919050565b600060208201905081810360008301526136fe816136c2565b9050919050565b7f4552433732313a2062616c616e636520717565727920666f7220746865207a6560008201527f726f206164647265737300000000000000000000000000000000000000000000602082015250565b6000613761602a83612b92565b915061376c82613705565b604082019050919050565b6000602082019050818103600083015261379081613754565b9050919050565b7f45524337323155524953746f726167653a2055524920717565727920666f722060008201527f6e6f6e6578697374656e7420746f6b656e000000000000000000000000000000602082015250565b60006137f3603183612b92565b91506137fe82613797565b604082019050919050565b60006020820190508181036000830152613822816137e6565b9050919050565b600061383482612b87565b61383e81856134e6565b935061384e818560208601612ba3565b80840191505092915050565b60006138668285613829565b91506138728284613829565b91508190509392505050565b7f4e6f7420656e6f756768204d6174696320706169640000000000000000000000600082015250565b60006138b4601583612b92565b91506138bf8261387e565b602082019050919050565b600060208201905081810360008301526138e3816138a7565b9050919050565b7f2e00000000000000000000000000000000000000000000000000000000000000600082015250565b60006139206001836134e6565b915061392b826138ea565b600182019050919050565b60008190508160005260206000209050919050565b60008154613958816132fe565b61396281866134e6565b9450600182166000811461397d576001811461398e576139c1565b60ff198316865281860193506139c1565b61399785613936565b60005b838110156139b95781548189015260018201915060208101905061399a565b838801955050505b50505092915050565b60006139d78285876134f1565b91506139e282613913565b91506139ee828461394b565b9150819050949350505050565b6000613a07828661394b565b9150613a138285613829565b9150613a1f828461394b565b9150819050949350505050565b7f7b226e616d65223a202200000000000000000000000000000000000000000000600082015250565b6000613a62600a836134e6565b9150613a6d82613a2c565b600a82019050919050565b7f222c20226465736372697074696f6e223a20224120646f6d61696e206f6e207460008201527f6865205a474c206e616d652073657276696365222c2022696d616765223a202260208201527f646174613a696d6167652f7376672b786d6c3b6261736536342c000000000000604082015250565b6000613afa605a836134e6565b9150613b0582613a78565b605a82019050919050565b7f222c226c656e677468223a220000000000000000000000000000000000000000600082015250565b6000613b46600c836134e6565b9150613b5182613b10565b600c82019050919050565b7f227d000000000000000000000000000000000000000000000000000000000000600082015250565b6000613b926002836134e6565b9150613b9d82613b5c565b600282019050919050565b6000613bb382613a55565b9150613bbf8286613829565b9150613bca82613aed565b9150613bd68285613829565b9150613be182613b39565b9150613bed8284613829565b9150613bf882613b85565b9150819050949350505050565b7f646174613a6170706c69636174696f6e2f6a736f6e3b6261736536342c000000600082015250565b6000613c3b601d836134e6565b9150613c4682613c05565b601d82019050919050565b6000613c5c82613c2e565b9150613c688284613829565b915081905092915050565b60006040820190508181036000830152613c8d8185612be7565b90508181036020830152613ca18184612be7565b90509392505050565b7f4552433732313a206f70657261746f7220717565727920666f72206e6f6e657860008201527f697374656e7420746f6b656e0000000000000000000000000000000000000000602082015250565b6000613d06602c83612b92565b9150613d1182613caa565b604082019050919050565b60006020820190508181036000830152613d3581613cf9565b9050919050565b7f4552433732313a207472616e736665722066726f6d20696e636f72726563742060008201527f6f776e6572000000000000000000000000000000000000000000000000000000602082015250565b6000613d98602583612b92565b9150613da382613d3c565b604082019050919050565b60006020820190508181036000830152613dc781613d8b565b9050919050565b7f4552433732313a207472616e7366657220746f20746865207a65726f2061646460008201527f7265737300000000000000000000000000000000000000000000000000000000602082015250565b6000613e2a602483612b92565b9150613e3582613dce565b604082019050919050565b60006020820190508181036000830152613e5981613e1d565b9050919050565b7f4e487b7100000000000000000000000000000000000000000000000000000000600052601160045260246000fd5b6000613e9a82612c42565b9150613ea583612c42565b925082821015613eb857613eb7613e60565b5b828203905092915050565b6000613ece82612c42565b9150613ed983612c42565b9250827fffffffffffffffffffffffffffffffffffffffffffffffffffffffffffffffff03821115613f0e57613f0d613e60565b5b828201905092915050565b7f4552433732313a20617070726f766520746f2063616c6c657200000000000000600082015250565b6000613f4f601983612b92565b9150613f5a82613f19565b602082019050919050565b60006020820190508181036000830152613f7e81613f42565b9050919050565b7f4552433732313a207472616e7366657220746f206e6f6e20455243373231526560008201527f63656976657220696d706c656d656e7465720000000000000000000000000000602082015250565b6000613fe1603283612b92565b9150613fec82613f85565b604082019050919050565b6000602082019050818103600083015261401081613fd4565b9050919050565b7f4552433732314d657461646174613a2055524920717565727920666f72206e6f60008201527f6e6578697374656e7420746f6b656e0000000000000000000000000000000000602082015250565b6000614073602f83612b92565b915061407e82614017565b604082019050919050565b600060208201905081810360008301526140a281614066565b9050919050565b7f4e487b7100000000000000000000000000000000000000000000000000000000600052603260045260246000fd5b60006140e382612c42565b91507fffffffffffffffffffffffffffffffffffffffffffffffffffffffffffffffff82141561411657614115613e60565b5b600182019050919050565b7f4e487b7100000000000000000000000000000000000000000000000000000000600052601260045260246000fd5b600061415b82612c42565b915061416683612c42565b92508261417657614175614121565b5b828204905092915050565b600061418c82612c42565b915061419783612c42565b9250826141a7576141a6614121565b5b828206905092915050565b600060808201905081810360008301526141cc8187612be7565b905081810360208301526141e08186612be7565b905081810360408301526141f48185612be7565b90506142036060830184613018565b95945050505050565b600061421782612c42565b915061422283612c42565b9250817fffffffffffffffffffffffffffffffffffffffffffffffffffffffffffffffff048311821515161561425b5761425a613e60565b5b828202905092915050565b7f45524337323155524953746f726167653a2055524920736574206f66206e6f6e60008201527f6578697374656e7420746f6b656e000000000000000000000000000000000000602082015250565b60006142c2602e83612b92565b91506142cd82614266565b604082019050919050565b600060208201905081810360008301526142f1816142b5565b9050919050565b600081519050919050565b600082825260208201905092915050565b600061431f826142f8565b6143298185614303565b9350614339818560208601612ba3565b61434281612bd6565b840191505092915050565b60006080820190506143626000830187612cd7565b61436f6020830186612cd7565b61437c6040830185613018565b818103606083015261438e8184614314565b905095945050505050565b6000815190506143a881612af8565b92915050565b6000602082840312156143c4576143c3612ac2565b5b60006143d284828501614399565b91505092915050565b7f4552433732313a206d696e7420746f20746865207a65726f2061646472657373600082015250565b6000614411602083612b92565b915061441c826143db565b602082019050919050565b6000602082019050818103600083015261444081614404565b9050919050565b7f4552433732313a20746f6b656e20616c7265616479206d696e74656400000000600082015250565b600061447d601c83612b92565b915061448882614447565b602082019050919050565b600060208201905081810360008301526144ac81614470565b905091905056fe0a2d2d2d2d2d2d2d2d2d2d2d2d2d2d2d2d2d2d2d2d2d2d2d2d2d2d2d2d2d2d2d2d2d2d2d2d2d2d2d2d2d2d2d2d2d2d2d2d2d2d2d2d2d2d2d2d5265676973746572696e672025732e2573206f6e2074686520636f6e7472616374207769746820746f6b656e49442025642d2d2d2d2d2d2d2d2d2d2d2d2d2d2d2d2d2d2d2d2d2d2d2d2d2d2d2d2d2d2d2d2d2d2d2d2d2d2d2d2d2d2d2d2d2d2d2d2d2d2d2d2d2d2d2d0a4142434445464748494a4b4c4d4e4f505152535455565758595a6162636465666768696a6b6c6d6e6f707172737475767778797a303132333435363738392b2fa26469706673582212207411eec91faaaaf33349baae1cb3cda1ec6f488ad8d9613cad50a931d9fc4ef164736f6c634300080a00333c73766720786d6c6e733d22687474703a2f2f7777772e77332e6f72672f323030302f737667222077696474683d2232373022206865696768743d22323730222066696c6c3d226e6f6e65223e3c706174682066696c6c3d2275726c282342292220643d224d302030683237307632373048307a222f3e3c646566733e3c66696c7465722069643d22412220636f6c6f722d696e746572706f6c6174696f6e2d66696c746572733d2273524742222066696c746572556e6974733d227573657253706163654f6e55736522206865696768743d22323730222077696474683d22323730223e3c666544726f70536861646f772064783d2230222064793d22312220737464446576696174696f6e3d22322220666c6f6f642d6f7061636974793d222e323235222077696474683d223230302522206865696768743d2232303025222f3e3c2f66696c7465723e3c2f646566733e3c7061746820643d224d37322e3836332034322e393439632d2e3636382d2e3338372d312e3432362d2e35392d322e3139372d2e3539732d312e3532392e3230342d322e3139372e35396c2d31302e30383120362e3033322d362e383520332e3933342d31302e30383120362e303332632d2e3636382e3338372d312e3432362e35392d322e3139372e3539732d312e3532392d2e3230342d322e3139372d2e35396c2d382e3031332d342e37323161342e353220342e35322030203020312d312e3538392d312e363136632d2e3338342d2e3636352d2e3539342d312e3431382d2e3630382d322e313837762d392e3331632d2e3031332d2e3737352e3138352d312e3533382e3537322d322e32303861342e323520342e323520302030203120312e3632352d312e3539356c372e3838342d342e3539632e3636382d2e33383720312e3432362d2e353920322e3139372d2e353973312e3532392e32303420322e3139372e35396c372e38383420342e353961342e353220342e353220302030203120312e35383920312e363136632e3338342e3636352e35393420312e3431382e36303820322e31383776362e3033326c362e38352d342e303635762d362e303332632e3031332d2e3737352d2e3138352d312e3533382d2e3537322d322e32303861342e323520342e32352030203020302d312e3632352d312e3539354c34312e3435362032342e3539632d2e3636382d2e3338372d312e3432362d2e35392d322e3139372d2e3539732d312e3532392e3230342d322e3139372e35396c2d31342e38363420382e36353561342e323520342e32352030203020302d312e36323520312e353935632d2e3338372e36372d2e35383520312e3433342d2e35373220322e3230387631372e343431632d2e3031332e3737352e31383520312e3533382e35373220322e32303861342e323520342e323520302030203020312e36323520312e3539356c31342e38363420382e363535632e3636382e33383720312e3432362e353920322e3139372e353973312e3532392d2e32303420322e3139372d2e35396c31302e3038312d352e39303120362e38352d342e3036352031302e3038312d352e393031632e3636382d2e33383720312e3432362d2e353920322e3139372d2e353973312e3532392e32303420322e3139372e35396c372e38383420342e353961342e353220342e353220302030203120312e35383920312e363136632e3338342e3636352e35393420312e3431382e36303820322e31383776392e333131632e3031332e3737352d2e31383520312e3533382d2e35373220322e32303861342e323520342e32352030203020312d312e36323520312e3539356c2d372e38383420342e373231632d2e3636382e3338372d312e3432362e35392d322e3139372e3539732d312e3532392d2e3230342d322e3139372d2e35396c2d372e3838342d342e353961342e353220342e35322030203020312d312e3538392d312e363136632d2e3338352d2e3636352d2e3539342d312e3431382d2e3630382d322e313837762d362e3033326c2d362e383520342e30363576362e303332632d2e3031332e3737352e31383520312e3533382e35373220322e32303861342e323520342e323520302030203020312e36323520312e3539356c31342e38363420382e363535632e3636382e33383720312e3432362e353920322e3139372e353973312e3532392d2e32303420322e3139372d2e35396c31342e3836342d382e363535632e3635372d2e33393420312e3230342d2e393520312e3538392d312e363136732e3539342d312e3431382e3630392d322e3138375635352e353338632e3031332d2e3737352d2e3138352d312e3533382d2e3537322d322e32303861342e323520342e32352030203020302d312e3632352d312e3539356c2d31342e3939332d382e3738367a222066696c6c3d2223666666222f3e3c646566733e3c6c696e6561724772616469656e742069643d2242222078313d2230222079313d2230222078323d22323730222079323d2232373022206772616469656e74556e6974733d227573657253706163654f6e557365223e3c73746f702073746f702d636f6c6f723d2223636235656565222f3e3c73746f70206f66667365743d2231222073746f702d636f6c6f723d2223306364376534222073746f702d6f7061636974793d222e3939222f3e3c2f6c696e6561724772616469656e743e3c2f646566733e3c7465787420783d2233322e352220793d223233312220666f6e742d73697a653d223237222066696c6c3d2223666666222066696c7465723d2275726c282341292220666f6e742d66616d696c793d22506c7573204a616b617274612053616e732c44656a6156752053616e732c4e6f746f20436f6c6f7220456d6f6a692c4170706c6520436f6c6f7220456d6f6a692c73616e732d73657269662220666f6e742d7765696768743d22626f6c64223e",
  "linkReferences": {},
  "deployedLinkReferences": {}
}